{
  "address": "0x6096C9D71F7c06024578a62F4B608a1Bb06834F8",
  "abi": [
    {
      "inputs": [],
      "name": "GHO_PRICE",
      "outputs": [
        {
          "internalType": "int256",
          "name": "",
          "type": "int256"
        }
      ],
      "stateMutability": "view",
      "type": "function"
    },
    {
      "inputs": [],
      "name": "decimals",
      "outputs": [
        {
          "internalType": "uint8",
          "name": "",
          "type": "uint8"
        }
      ],
      "stateMutability": "pure",
      "type": "function"
    },
    {
      "inputs": [],
      "name": "latestAnswer",
      "outputs": [
        {
          "internalType": "int256",
          "name": "",
          "type": "int256"
        }
      ],
      "stateMutability": "pure",
      "type": "function"
    }
  ],
  "transactionHash": "0x31dd5fde4b9dc4232cee4ba56a462d644a61ed580daad3bfb321a2da2b34b7df",
  "args": [],
  "numDeployments": 1,
  "solcInputHash": "2e488d05c20cc61b064a5f3f9e5b4b77",
  "bytecode": "0x6080604052348015600f57600080fd5b5060a88061001e6000396000f3fe6080604052348015600f57600080fd5b5060043610603c5760003560e01c8063313ce56714604157806350d25bcd146055578063abe30b30146068575b600080fd5b604051600881526020015b60405180910390f35b6305f5e1005b604051908152602001604c565b605b6305f5e1008156fea26469706673582212204533d05e4ca7ecd8bbe7b301679b70f04ff3508237c5efaf6c374a067c799cfc64736f6c634300080a0033",
  "devdoc": {
    "author": "Aave",
    "details": "Price fixed at 1 USD, Chainlink format with 8 decimals",
    "kind": "dev",
    "methods": {
      "decimals()": {
        "returns": {
          "_0": "The number of decimals"
        }
      },
      "latestAnswer()": {
        "details": "GHO price is fixed at 1 USD",
        "returns": {
          "_0": "The price of a unit of GHO (with 8 decimals)"
        }
      }
    },
    "title": "GhoOracle",
    "version": 1
  },
  "userdoc": {
    "kind": "user",
    "methods": {
      "decimals()": {
        "notice": "Returns the number of decimals the price is formatted with"
      },
      "latestAnswer()": {
        "notice": "Returns the price of a unit of GHO (USD denominated)"
      }
    },
    "notice": "Price feed for GHO (USD denominated)",
    "version": 1
  },
  "storageLayout": {
    "storage": [],
    "types": null
  }
}