{
  "address": "0x2F079d948588c40657f914df00b779049Ad59a07",
  "abi": [
    {
      "inputs": [
        {
          "internalType": "contract IPool",
          "name": "pool",
          "type": "address"
        }
      ],
      "stateMutability": "nonpayable",
      "type": "constructor"
    },
    {
      "anonymous": false,
      "inputs": [
        {
          "indexed": true,
          "internalType": "address",
          "name": "aToken",
          "type": "address"
        }
      ],
      "name": "ATokenSet",
      "type": "event"
    },
    {
      "anonymous": false,
      "inputs": [
        {
          "indexed": true,
          "internalType": "address",
          "name": "owner",
          "type": "address"
        },
        {
          "indexed": true,
          "internalType": "address",
          "name": "spender",
          "type": "address"
        },
        {
          "indexed": false,
          "internalType": "uint256",
          "name": "value",
          "type": "uint256"
        }
      ],
      "name": "Approval",
      "type": "event"
    },
    {
      "anonymous": false,
      "inputs": [
        {
          "indexed": true,
          "internalType": "address",
          "name": "fromUser",
          "type": "address"
        },
        {
          "indexed": true,
          "internalType": "address",
          "name": "toUser",
          "type": "address"
        },
        {
          "indexed": true,
          "internalType": "address",
          "name": "asset",
          "type": "address"
        },
        {
          "indexed": false,
          "internalType": "uint256",
          "name": "amount",
          "type": "uint256"
        }
      ],
      "name": "BorrowAllowanceDelegated",
      "type": "event"
    },
    {
      "anonymous": false,
      "inputs": [
        {
          "indexed": true,
          "internalType": "address",
          "name": "from",
          "type": "address"
        },
        {
          "indexed": true,
          "internalType": "address",
          "name": "target",
          "type": "address"
        },
        {
          "indexed": false,
          "internalType": "uint256",
          "name": "value",
          "type": "uint256"
        },
        {
          "indexed": false,
          "internalType": "uint256",
          "name": "balanceIncrease",
          "type": "uint256"
        },
        {
          "indexed": false,
          "internalType": "uint256",
          "name": "index",
          "type": "uint256"
        }
      ],
      "name": "Burn",
      "type": "event"
    },
    {
      "anonymous": false,
      "inputs": [
        {
          "indexed": true,
          "internalType": "address",
          "name": "user",
          "type": "address"
        },
        {
          "indexed": false,
          "internalType": "uint256",
          "name": "oldDiscountPercent",
          "type": "uint256"
        },
        {
          "indexed": true,
          "internalType": "uint256",
          "name": "newDiscountPercent",
          "type": "uint256"
        }
      ],
      "name": "DiscountPercentUpdated",
      "type": "event"
    },
    {
      "anonymous": false,
      "inputs": [
        {
          "indexed": true,
          "internalType": "address",
          "name": "oldDiscountRateStrategy",
          "type": "address"
        },
        {
          "indexed": true,
          "internalType": "address",
          "name": "newDiscountRateStrategy",
          "type": "address"
        }
      ],
      "name": "DiscountRateStrategyUpdated",
      "type": "event"
    },
    {
      "anonymous": false,
      "inputs": [
        {
          "indexed": true,
          "internalType": "address",
          "name": "oldDiscountToken",
          "type": "address"
        },
        {
          "indexed": true,
          "internalType": "address",
          "name": "newDiscountToken",
          "type": "address"
        }
      ],
      "name": "DiscountTokenUpdated",
      "type": "event"
    },
    {
      "anonymous": false,
      "inputs": [
        {
          "indexed": true,
          "internalType": "address",
          "name": "underlyingAsset",
          "type": "address"
        },
        {
          "indexed": true,
          "internalType": "address",
          "name": "pool",
          "type": "address"
        },
        {
          "indexed": false,
          "internalType": "address",
          "name": "incentivesController",
          "type": "address"
        },
        {
          "indexed": false,
          "internalType": "uint8",
          "name": "debtTokenDecimals",
          "type": "uint8"
        },
        {
          "indexed": false,
          "internalType": "string",
          "name": "debtTokenName",
          "type": "string"
        },
        {
          "indexed": false,
          "internalType": "string",
          "name": "debtTokenSymbol",
          "type": "string"
        },
        {
          "indexed": false,
          "internalType": "bytes",
          "name": "params",
          "type": "bytes"
        }
      ],
      "name": "Initialized",
      "type": "event"
    },
    {
      "anonymous": false,
      "inputs": [
        {
          "indexed": true,
          "internalType": "address",
          "name": "caller",
          "type": "address"
        },
        {
          "indexed": true,
          "internalType": "address",
          "name": "onBehalfOf",
          "type": "address"
        },
        {
          "indexed": false,
          "internalType": "uint256",
          "name": "value",
          "type": "uint256"
        },
        {
          "indexed": false,
          "internalType": "uint256",
          "name": "balanceIncrease",
          "type": "uint256"
        },
        {
          "indexed": false,
          "internalType": "uint256",
          "name": "index",
          "type": "uint256"
        }
      ],
      "name": "Mint",
      "type": "event"
    },
    {
      "anonymous": false,
      "inputs": [
        {
          "indexed": true,
          "internalType": "address",
          "name": "from",
          "type": "address"
        },
        {
          "indexed": true,
          "internalType": "address",
          "name": "to",
          "type": "address"
        },
        {
          "indexed": false,
          "internalType": "uint256",
          "name": "value",
          "type": "uint256"
        }
      ],
      "name": "Transfer",
      "type": "event"
    },
    {
      "inputs": [],
      "name": "DEBT_TOKEN_REVISION",
      "outputs": [
        {
          "internalType": "uint256",
          "name": "",
          "type": "uint256"
        }
      ],
      "stateMutability": "view",
      "type": "function"
    },
    {
      "inputs": [],
      "name": "DELEGATION_WITH_SIG_TYPEHASH",
      "outputs": [
        {
          "internalType": "bytes32",
          "name": "",
          "type": "bytes32"
        }
      ],
      "stateMutability": "view",
      "type": "function"
    },
    {
      "inputs": [],
      "name": "DOMAIN_SEPARATOR",
      "outputs": [
        {
          "internalType": "bytes32",
          "name": "",
          "type": "bytes32"
        }
      ],
      "stateMutability": "view",
      "type": "function"
    },
    {
      "inputs": [],
      "name": "EIP712_REVISION",
      "outputs": [
        {
          "internalType": "bytes",
          "name": "",
          "type": "bytes"
        }
      ],
      "stateMutability": "view",
      "type": "function"
    },
    {
      "inputs": [],
      "name": "POOL",
      "outputs": [
        {
          "internalType": "contract IPool",
          "name": "",
          "type": "address"
        }
      ],
      "stateMutability": "view",
      "type": "function"
    },
    {
      "inputs": [],
      "name": "UNDERLYING_ASSET_ADDRESS",
      "outputs": [
        {
          "internalType": "address",
          "name": "",
          "type": "address"
        }
      ],
      "stateMutability": "view",
      "type": "function"
    },
    {
      "inputs": [
        {
          "internalType": "address",
          "name": "",
          "type": "address"
        },
        {
          "internalType": "address",
          "name": "",
          "type": "address"
        }
      ],
      "name": "allowance",
      "outputs": [
        {
          "internalType": "uint256",
          "name": "",
          "type": "uint256"
        }
      ],
      "stateMutability": "view",
      "type": "function"
    },
    {
      "inputs": [
        {
          "internalType": "address",
          "name": "",
          "type": "address"
        },
        {
          "internalType": "uint256",
          "name": "",
          "type": "uint256"
        }
      ],
      "name": "approve",
      "outputs": [
        {
          "internalType": "bool",
          "name": "",
          "type": "bool"
        }
      ],
      "stateMutability": "nonpayable",
      "type": "function"
    },
    {
      "inputs": [
        {
          "internalType": "address",
          "name": "delegatee",
          "type": "address"
        },
        {
          "internalType": "uint256",
          "name": "amount",
          "type": "uint256"
        }
      ],
      "name": "approveDelegation",
      "outputs": [],
      "stateMutability": "nonpayable",
      "type": "function"
    },
    {
      "inputs": [
        {
          "internalType": "address",
          "name": "user",
          "type": "address"
        }
      ],
      "name": "balanceOf",
      "outputs": [
        {
          "internalType": "uint256",
          "name": "",
          "type": "uint256"
        }
      ],
      "stateMutability": "view",
      "type": "function"
    },
    {
      "inputs": [
        {
          "internalType": "address",
          "name": "fromUser",
          "type": "address"
        },
        {
          "internalType": "address",
          "name": "toUser",
          "type": "address"
        }
      ],
      "name": "borrowAllowance",
      "outputs": [
        {
          "internalType": "uint256",
          "name": "",
          "type": "uint256"
        }
      ],
      "stateMutability": "view",
      "type": "function"
    },
    {
      "inputs": [
        {
          "internalType": "address",
          "name": "from",
          "type": "address"
        },
        {
          "internalType": "uint256",
          "name": "amount",
          "type": "uint256"
        },
        {
          "internalType": "uint256",
          "name": "index",
          "type": "uint256"
        }
      ],
      "name": "burn",
      "outputs": [
        {
          "internalType": "uint256",
          "name": "",
          "type": "uint256"
        }
      ],
      "stateMutability": "nonpayable",
      "type": "function"
    },
    {
      "inputs": [],
      "name": "decimals",
      "outputs": [
        {
          "internalType": "uint8",
          "name": "",
          "type": "uint8"
        }
      ],
      "stateMutability": "view",
      "type": "function"
    },
    {
      "inputs": [
        {
          "internalType": "address",
          "name": "",
          "type": "address"
        },
        {
          "internalType": "uint256",
          "name": "",
          "type": "uint256"
        }
      ],
      "name": "decreaseAllowance",
      "outputs": [
        {
          "internalType": "bool",
          "name": "",
          "type": "bool"
        }
      ],
      "stateMutability": "nonpayable",
      "type": "function"
    },
    {
      "inputs": [
        {
          "internalType": "address",
          "name": "user",
          "type": "address"
        },
        {
          "internalType": "uint256",
          "name": "amount",
          "type": "uint256"
        }
      ],
      "name": "decreaseBalanceFromInterest",
      "outputs": [],
      "stateMutability": "nonpayable",
      "type": "function"
    },
    {
      "inputs": [
        {
          "internalType": "address",
          "name": "delegator",
          "type": "address"
        },
        {
          "internalType": "address",
          "name": "delegatee",
          "type": "address"
        },
        {
          "internalType": "uint256",
          "name": "value",
          "type": "uint256"
        },
        {
          "internalType": "uint256",
          "name": "deadline",
          "type": "uint256"
        },
        {
          "internalType": "uint8",
          "name": "v",
          "type": "uint8"
        },
        {
          "internalType": "bytes32",
          "name": "r",
          "type": "bytes32"
        },
        {
          "internalType": "bytes32",
          "name": "s",
          "type": "bytes32"
        }
      ],
      "name": "delegationWithSig",
      "outputs": [],
      "stateMutability": "nonpayable",
      "type": "function"
    },
    {
      "inputs": [],
      "name": "getAToken",
      "outputs": [
        {
          "internalType": "address",
          "name": "",
          "type": "address"
        }
      ],
      "stateMutability": "view",
      "type": "function"
    },
    {
      "inputs": [
        {
          "internalType": "address",
          "name": "user",
          "type": "address"
        }
      ],
      "name": "getBalanceFromInterest",
      "outputs": [
        {
          "internalType": "uint256",
          "name": "",
          "type": "uint256"
        }
      ],
      "stateMutability": "view",
      "type": "function"
    },
    {
      "inputs": [
        {
          "internalType": "address",
          "name": "user",
          "type": "address"
        }
      ],
      "name": "getDiscountPercent",
      "outputs": [
        {
          "internalType": "uint256",
          "name": "",
          "type": "uint256"
        }
      ],
      "stateMutability": "view",
      "type": "function"
    },
    {
      "inputs": [],
      "name": "getDiscountRateStrategy",
      "outputs": [
        {
          "internalType": "address",
          "name": "",
          "type": "address"
        }
      ],
      "stateMutability": "view",
      "type": "function"
    },
    {
      "inputs": [],
      "name": "getDiscountToken",
      "outputs": [
        {
          "internalType": "address",
          "name": "",
          "type": "address"
        }
      ],
      "stateMutability": "view",
      "type": "function"
    },
    {
      "inputs": [],
      "name": "getIncentivesController",
      "outputs": [
        {
          "internalType": "contract IAaveIncentivesController",
          "name": "",
          "type": "address"
        }
      ],
      "stateMutability": "view",
      "type": "function"
    },
    {
      "inputs": [
        {
          "internalType": "address",
          "name": "user",
          "type": "address"
        }
      ],
      "name": "getPreviousIndex",
      "outputs": [
        {
          "internalType": "uint256",
          "name": "",
          "type": "uint256"
        }
      ],
      "stateMutability": "view",
      "type": "function"
    },
    {
      "inputs": [
        {
          "internalType": "address",
          "name": "user",
          "type": "address"
        }
      ],
      "name": "getScaledUserBalanceAndSupply",
      "outputs": [
        {
          "internalType": "uint256",
          "name": "",
          "type": "uint256"
        },
        {
          "internalType": "uint256",
          "name": "",
          "type": "uint256"
        }
      ],
      "stateMutability": "view",
      "type": "function"
    },
    {
      "inputs": [
        {
          "internalType": "address",
          "name": "",
          "type": "address"
        },
        {
          "internalType": "uint256",
          "name": "",
          "type": "uint256"
        }
      ],
      "name": "increaseAllowance",
      "outputs": [
        {
          "internalType": "bool",
          "name": "",
          "type": "bool"
        }
      ],
      "stateMutability": "nonpayable",
      "type": "function"
    },
    {
      "inputs": [
        {
          "internalType": "contract IPool",
          "name": "initializingPool",
          "type": "address"
        },
        {
          "internalType": "address",
          "name": "underlyingAsset",
          "type": "address"
        },
        {
          "internalType": "contract IAaveIncentivesController",
          "name": "incentivesController",
          "type": "address"
        },
        {
          "internalType": "uint8",
          "name": "debtTokenDecimals",
          "type": "uint8"
        },
        {
          "internalType": "string",
          "name": "debtTokenName",
          "type": "string"
        },
        {
          "internalType": "string",
          "name": "debtTokenSymbol",
          "type": "string"
        },
        {
          "internalType": "bytes",
          "name": "params",
          "type": "bytes"
        }
      ],
      "name": "initialize",
      "outputs": [],
      "stateMutability": "nonpayable",
      "type": "function"
    },
    {
      "inputs": [
        {
          "internalType": "address",
          "name": "user",
          "type": "address"
        },
        {
          "internalType": "address",
          "name": "onBehalfOf",
          "type": "address"
        },
        {
          "internalType": "uint256",
          "name": "amount",
          "type": "uint256"
        },
        {
          "internalType": "uint256",
          "name": "index",
          "type": "uint256"
        }
      ],
      "name": "mint",
      "outputs": [
        {
          "internalType": "bool",
          "name": "",
          "type": "bool"
        },
        {
          "internalType": "uint256",
          "name": "",
          "type": "uint256"
        }
      ],
      "stateMutability": "nonpayable",
      "type": "function"
    },
    {
      "inputs": [],
      "name": "name",
      "outputs": [
        {
          "internalType": "string",
          "name": "",
          "type": "string"
        }
      ],
      "stateMutability": "view",
      "type": "function"
    },
    {
      "inputs": [
        {
          "internalType": "address",
          "name": "owner",
          "type": "address"
        }
      ],
      "name": "nonces",
      "outputs": [
        {
          "internalType": "uint256",
          "name": "",
          "type": "uint256"
        }
      ],
      "stateMutability": "view",
      "type": "function"
    },
    {
      "inputs": [
        {
          "internalType": "address",
          "name": "user",
          "type": "address"
        }
      ],
      "name": "rebalanceUserDiscountPercent",
      "outputs": [],
      "stateMutability": "nonpayable",
      "type": "function"
    },
    {
      "inputs": [
        {
          "internalType": "address",
          "name": "user",
          "type": "address"
        }
      ],
      "name": "scaledBalanceOf",
      "outputs": [
        {
          "internalType": "uint256",
          "name": "",
          "type": "uint256"
        }
      ],
      "stateMutability": "view",
      "type": "function"
    },
    {
      "inputs": [],
      "name": "scaledTotalSupply",
      "outputs": [
        {
          "internalType": "uint256",
          "name": "",
          "type": "uint256"
        }
      ],
      "stateMutability": "view",
      "type": "function"
    },
    {
      "inputs": [
        {
          "internalType": "address",
          "name": "ghoAToken",
          "type": "address"
        }
      ],
      "name": "setAToken",
      "outputs": [],
      "stateMutability": "nonpayable",
      "type": "function"
    },
    {
      "inputs": [
        {
          "internalType": "contract IAaveIncentivesController",
          "name": "controller",
          "type": "address"
        }
      ],
      "name": "setIncentivesController",
      "outputs": [],
      "stateMutability": "nonpayable",
      "type": "function"
    },
    {
      "inputs": [],
      "name": "symbol",
      "outputs": [
        {
          "internalType": "string",
          "name": "",
          "type": "string"
        }
      ],
      "stateMutability": "view",
      "type": "function"
    },
    {
      "inputs": [],
      "name": "totalSupply",
      "outputs": [
        {
          "internalType": "uint256",
          "name": "",
          "type": "uint256"
        }
      ],
      "stateMutability": "view",
      "type": "function"
    },
    {
      "inputs": [
        {
          "internalType": "address",
          "name": "",
          "type": "address"
        },
        {
          "internalType": "uint256",
          "name": "",
          "type": "uint256"
        }
      ],
      "name": "transfer",
      "outputs": [
        {
          "internalType": "bool",
          "name": "",
          "type": "bool"
        }
      ],
      "stateMutability": "nonpayable",
      "type": "function"
    },
    {
      "inputs": [
        {
          "internalType": "address",
          "name": "",
          "type": "address"
        },
        {
          "internalType": "address",
          "name": "",
          "type": "address"
        },
        {
          "internalType": "uint256",
          "name": "",
          "type": "uint256"
        }
      ],
      "name": "transferFrom",
      "outputs": [
        {
          "internalType": "bool",
          "name": "",
          "type": "bool"
        }
      ],
      "stateMutability": "nonpayable",
      "type": "function"
    },
    {
      "inputs": [
        {
          "internalType": "address",
          "name": "sender",
          "type": "address"
        },
        {
          "internalType": "address",
          "name": "recipient",
          "type": "address"
        },
        {
          "internalType": "uint256",
          "name": "senderDiscountTokenBalance",
          "type": "uint256"
        },
        {
          "internalType": "uint256",
          "name": "recipientDiscountTokenBalance",
          "type": "uint256"
        },
        {
          "internalType": "uint256",
          "name": "amount",
          "type": "uint256"
        }
      ],
      "name": "updateDiscountDistribution",
      "outputs": [],
      "stateMutability": "nonpayable",
      "type": "function"
    },
    {
      "inputs": [
        {
          "internalType": "address",
          "name": "newDiscountRateStrategy",
          "type": "address"
        }
      ],
      "name": "updateDiscountRateStrategy",
      "outputs": [],
      "stateMutability": "nonpayable",
      "type": "function"
    },
    {
      "inputs": [
        {
          "internalType": "address",
          "name": "newDiscountToken",
          "type": "address"
        }
      ],
      "name": "updateDiscountToken",
      "outputs": [],
      "stateMutability": "nonpayable",
      "type": "function"
    }
  ],
  "transactionHash": "0xcdb0da55325646d1385d237345f2a811d06d32199b76ab9c5d6fa2b76e7c0e99",
  "args": [
    "0x1b02E051683b5cfaC5929C25E84adb26ECf87B38"
  ],
  "numDeployments": 1,
  "solcInputHash": "2e488d05c20cc61b064a5f3f9e5b4b77",
  "bytecode": "0x60e0604052600080553480156200001557600080fd5b506040516200416b3803806200416b833981016040819052620000389162000245565b806040518060400160405280601c81526020017f47484f5f5641524941424c455f444542545f544f4b454e5f494d504c000000008152506040518060400160405280601c81526020017f47484f5f5641524941424c455f444542545f544f4b454e5f494d504c00000000815250600083838383838383834660808181525050836001600160a01b0316630542975c6040518163ffffffff1660e01b8152600401602060405180830381865afa158015620000f6573d6000803e3d6000fd5b505050506040513d601f19601f820116820180604052508101906200011c919062000245565b6001600160a01b031660a05282516200013d90603b90602086019062000186565b5081516200015390603c90602085019062000186565b50603d805460ff191660ff9290921691909117905550506001600160a01b031660c05250620002a9975050505050505050565b82805462000194906200026c565b90600052602060002090601f016020900481019282620001b8576000855562000203565b82601f10620001d357805160ff191683800117855562000203565b8280016001018555821562000203579182015b8281111562000203578251825591602001919060010190620001e6565b506200021192915062000215565b5090565b5b8082111562000211576000815560010162000216565b6001600160a01b03811681146200024257600080fd5b50565b6000602082840312156200025857600080fd5b815162000265816200022c565b9392505050565b600181811c908216806200028157607f821691505b60208210811415620002a357634e487b7160e01b600052602260045260246000fd5b50919050565b60805160a05160c051613e45620003266000396000818161051101528181610dca01528181611268015281816119bd01528181611b5f01528181611e560152818161201a0152818161217501526126d8015260008181610e4a015281816116320152818161224001526124c4015260006110d00152613e456000f3fe608060405234801561001057600080fd5b50600436106102d35760003560e01c80637ccf1a1511610186578063b9a7b622116100e3578063e075398611610097578063f3bfc73811610071578063f3bfc7381461079a578063f5298aca146107c1578063fe49b794146107d457600080fd5b8063e07539861461070d578063e655dbd814610769578063efe3de141461077c57600080fd5b8063c222ec8a116100c8578063c222ec8a146106d9578063ce79f382146106ec578063dd62ed3e146106ff57600080fd5b8063b9a7b622146106be578063c04a8a10146106c657600080fd5b8063a9059cbb1161013a578063b1bf962d1161011f578063b1bf962d1461066e578063b29c55bc14610676578063b3f1c93d1461069457600080fd5b8063a9059cbb146102f6578063b16a19de1461065057600080fd5b80637f3c4a661161016b5780637f3c4a661461063557806395d89b4114610648578063a457c2d7146102f657600080fd5b80637ccf1a15146105b75780637ecebe00146105ff57600080fd5b80633644e515116102345780636c53272b116101e85780637535d246116101cd5780637535d2461461050c57806375d2641314610558578063781603761461057b57600080fd5b80636c53272b146104ab57806370a08231146104f957600080fd5b80635b9c4cf1116102195780635b9c4cf11461043f5780635f09d84c146104525780636bd76d241461046557600080fd5b80633644e5151461043757806339509351146102f657600080fd5b806318160ddd1161028b5780631da24f3e116102705780631da24f3e146103cc57806323b872dd14610414578063313ce5671461042257600080fd5b806318160ddd146103a35780631c98cfb7146103b957600080fd5b80630afbcdc9116102bc5780630afbcdc9146103195780630b52d5581461037b5780630d44dedc1461039057600080fd5b806306fdde03146102d8578063095ea7b3146102f6575b600080fd5b6102e06107f2565b6040516102ed91906137ab565b60405180910390f35b6103096103043660046137fa565b610884565b60405190151581526020016102ed565b610366610327366004613826565b73ffffffffffffffffffffffffffffffffffffffff16600090815260386020526040902054603a546fffffffffffffffffffffffffffffffff90911691565b604080519283526020830191909152016102ed565b61038e610389366004613854565b6108f4565b005b61038e61039e3660046137fa565b610c45565b6103ab610d7b565b6040519081526020016102ed565b61038e6103c7366004613826565b610e46565b6103ab6103da366004613826565b73ffffffffffffffffffffffffffffffffffffffff166000908152603860205260409020546fffffffffffffffffffffffffffffffff1690565b6103096103043660046138c2565b603d5460405160ff90911681526020016102ed565b6103ab6110cc565b61038e61044d366004613903565b611105565b61038e610460366004613826565b61162e565b6103ab610473366004613954565b73ffffffffffffffffffffffffffffffffffffffff918216600090815260366020908152604080832093909416825291909152205490565b6103ab6104b9366004613826565b73ffffffffffffffffffffffffffffffffffffffff16600090815260416020526040902054700100000000000000000000000000000000900461ffff1690565b6103ab610507366004613826565b61192c565b6105337f000000000000000000000000000000000000000000000000000000000000000081565b60405173ffffffffffffffffffffffffffffffffffffffff90911681526020016102ed565b603d54610100900473ffffffffffffffffffffffffffffffffffffffff16610533565b6102e06040518060400160405280600181526020017f310000000000000000000000000000000000000000000000000000000000000081525081565b6103ab6105c5366004613826565b73ffffffffffffffffffffffffffffffffffffffff166000908152604160205260409020546fffffffffffffffffffffffffffffffff1690565b6103ab61060d366004613826565b73ffffffffffffffffffffffffffffffffffffffff1660009081526034602052604090205490565b61038e610643366004613826565b611b14565b6102e0611e00565b60375473ffffffffffffffffffffffffffffffffffffffff16610533565b6103ab611e0f565b603e5473ffffffffffffffffffffffffffffffffffffffff16610533565b6106a76106a236600461398d565b611e1a565b6040805192151583526020830191909152016102ed565b6103ab600181565b61038e6106d43660046137fa565b611f23565b61038e6106e7366004613af6565b611f32565b61038e6106fa366004613826565b61223c565b6103ab610304366004613954565b6103ab61071b366004613826565b73ffffffffffffffffffffffffffffffffffffffff1660009081526038602052604090205470010000000000000000000000000000000090046fffffffffffffffffffffffffffffffff1690565b61038e610777366004613826565b6124c0565b603f5473ffffffffffffffffffffffffffffffffffffffff16610533565b6103ab7f323db0410fecc107e39e2af5908671f4c8d106123b35a51501bb805c5fa36aa081565b6103ab6107cf366004613bcb565b61269e565b60405473ffffffffffffffffffffffffffffffffffffffff16610533565b6060603b805461080190613c00565b80601f016020809104026020016040519081016040528092919081815260200182805461082d90613c00565b801561087a5780601f1061084f5761010080835404028352916020019161087a565b820191906000526020600020905b81548152906001019060200180831161085d57829003601f168201915b5050505050905090565b604080518082018252600281527f3830000000000000000000000000000000000000000000000000000000000000602082015290517f08c379a00000000000000000000000000000000000000000000000000000000081526000916108eb916004016137ab565b60405180910390fd5b60408051808201909152600281527f3737000000000000000000000000000000000000000000000000000000000000602082015273ffffffffffffffffffffffffffffffffffffffff8816610976576040517f08c379a00000000000000000000000000000000000000000000000000000000081526004016108eb91906137ab565b50834211156040518060400160405280600281526020017f3738000000000000000000000000000000000000000000000000000000000000815250906109e9576040517f08c379a00000000000000000000000000000000000000000000000000000000081526004016108eb91906137ab565b5073ffffffffffffffffffffffffffffffffffffffff871660009081526034602052604081205490610a196110cc565b604080517f323db0410fecc107e39e2af5908671f4c8d106123b35a51501bb805c5fa36aa0602082015273ffffffffffffffffffffffffffffffffffffffff8b1691810191909152606081018990526080810184905260a0810188905260c00160405160208183030381529060405280519060200120604051602001610ad19291907f190100000000000000000000000000000000000000000000000000000000000081526002810192909252602282015260420190565b604080517fffffffffffffffffffffffffffffffffffffffffffffffffffffffffffffffe081840301815282825280516020918201206000845290830180835281905260ff8816918301919091526060820186905260808201859052915060019060a0016020604051602081039080840390855afa158015610b57573d6000803e3d6000fd5b5050506020604051035173ffffffffffffffffffffffffffffffffffffffff168973ffffffffffffffffffffffffffffffffffffffff16146040518060400160405280600281526020017f373900000000000000000000000000000000000000000000000000000000000081525090610bfd576040517f08c379a00000000000000000000000000000000000000000000000000000000081526004016108eb91906137ab565b50610c09826001613c83565b73ffffffffffffffffffffffffffffffffffffffff8a16600090815260346020526040902055610c3a898989612763565b505050505050505050565b603e5473ffffffffffffffffffffffffffffffffffffffff163314610cc6576040517f08c379a000000000000000000000000000000000000000000000000000000000815260206004820152601260248201527f43414c4c45525f4e4f545f415f544f4b454e000000000000000000000000000060448201526064016108eb565b73ffffffffffffffffffffffffffffffffffffffff8216600090815260416020526040902054610d1290610d0d9083906fffffffffffffffffffffffffffffffff16613c9b565b6127da565b73ffffffffffffffffffffffffffffffffffffffff92909216600090815260416020526040902080547fffffffffffffffffffffffffffffffff00000000000000000000000000000000166fffffffffffffffffffffffffffffffff9093169290921790915550565b6037546040517f386497fd00000000000000000000000000000000000000000000000000000000815273ffffffffffffffffffffffffffffffffffffffff9182166004820152600091610e41917f00000000000000000000000000000000000000000000000000000000000000009091169063386497fd90602401602060405180830381865afa158015610e13573d6000803e3d6000fd5b505050506040513d601f19601f82011682018060405250810190610e379190613cb2565b603a545b90612880565b905090565b60007f000000000000000000000000000000000000000000000000000000000000000073ffffffffffffffffffffffffffffffffffffffff1663707cd7166040518163ffffffff1660e01b8152600401602060405180830381865afa158015610eb3573d6000803e3d6000fd5b505050506040513d601f19601f82011682018060405250810190610ed79190613ccb565b6040517f7be53ca100000000000000000000000000000000000000000000000000000000815233600482015290915073ffffffffffffffffffffffffffffffffffffffff821690637be53ca190602401602060405180830381865afa158015610f44573d6000803e3d6000fd5b505050506040513d601f19601f82011682018060405250810190610f689190613ce8565b6040518060400160405280600181526020017f310000000000000000000000000000000000000000000000000000000000000081525090610fd6576040517f08c379a00000000000000000000000000000000000000000000000000000000081526004016108eb91906137ab565b5073ffffffffffffffffffffffffffffffffffffffff8216611054576040517f08c379a000000000000000000000000000000000000000000000000000000000815260206004820152601660248201527f5a45524f5f414444524553535f4e4f545f56414c49440000000000000000000060448201526064016108eb565b603f805473ffffffffffffffffffffffffffffffffffffffff8481167fffffffffffffffffffffffff0000000000000000000000000000000000000000831681179093556040519116919082907f6b489e1dbfbe36f55c511c098bcc9d92fec7f04f74ceb75018697ab68f7d352990600090a3505050565b60007f00000000000000000000000000000000000000000000000000000000000000004614156110fd575060355490565b610e416128d7565b603f5473ffffffffffffffffffffffffffffffffffffffff163314611186576040517f08c379a000000000000000000000000000000000000000000000000000000000815260206004820152601960248201527f43414c4c45525f4e4f545f444953434f554e545f544f4b454e0000000000000060448201526064016108eb565b8373ffffffffffffffffffffffffffffffffffffffff168573ffffffffffffffffffffffffffffffffffffffff1614156111bf57611627565b73ffffffffffffffffffffffffffffffffffffffff8581166000908152603860205260408082205492871682529020546fffffffffffffffffffffffffffffffff918216911681158015611211575080155b1561121d575050611627565b6037546040517f386497fd00000000000000000000000000000000000000000000000000000000815273ffffffffffffffffffffffffffffffffffffffff91821660048201526000917f0000000000000000000000000000000000000000000000000000000000000000169063386497fd90602401602060405180830381865afa1580156112af573d6000803e3d6000fd5b505050506040513d601f19601f820116820180604052508101906112d39190613cb2565b9050600080841561147f5773ffffffffffffffffffffffffffffffffffffffff8a1660009081526041602052604090205461132a908b908790700100000000000000000000000000000000900461ffff168661299c565b90925090506113418a61133c836127da565b612b31565b6113d48a61138785610e3b8e73ffffffffffffffffffffffffffffffffffffffff166000908152603860205260409020546fffffffffffffffffffffffffffffffff1690565b611391898c613c9b565b73ffffffffffffffffffffffffffffffffffffffff8e16600090815260416020526040902054700100000000000000000000000000000000900461ffff16612ca6565b60405182815273ffffffffffffffffffffffffffffffffffffffff8b16906000907fddf252ad1be2c89b69c2b068fc378daa952ba7f163c4a11628f55a4df523b3ef9060200160405180910390a3604080518381526020810184905290810184905273ffffffffffffffffffffffffffffffffffffffff8b16906000907f458f5fa412d0f69b08dd84872b0215675cc67bc1d5b6fd93300a1c3878b861969060600160405180910390a35b83156116215773ffffffffffffffffffffffffffffffffffffffff89166000908152604160205260409020546114d1908a908690700100000000000000000000000000000000900461ffff168661299c565b90925090506114e38961133c836127da565b6115768961152985610e3b8d73ffffffffffffffffffffffffffffffffffffffff166000908152603860205260409020546fffffffffffffffffffffffffffffffff1690565b611533898b613c83565b73ffffffffffffffffffffffffffffffffffffffff8d16600090815260416020526040902054700100000000000000000000000000000000900461ffff16612ca6565b60405182815273ffffffffffffffffffffffffffffffffffffffff8a16906000907fddf252ad1be2c89b69c2b068fc378daa952ba7f163c4a11628f55a4df523b3ef9060200160405180910390a3604080518381526020810184905290810184905273ffffffffffffffffffffffffffffffffffffffff8a16906000907f458f5fa412d0f69b08dd84872b0215675cc67bc1d5b6fd93300a1c3878b861969060600160405180910390a35b50505050505b5050505050565b60007f000000000000000000000000000000000000000000000000000000000000000073ffffffffffffffffffffffffffffffffffffffff1663707cd7166040518163ffffffff1660e01b8152600401602060405180830381865afa15801561169b573d6000803e3d6000fd5b505050506040513d601f19601f820116820180604052508101906116bf9190613ccb565b6040517f7be53ca100000000000000000000000000000000000000000000000000000000815233600482015290915073ffffffffffffffffffffffffffffffffffffffff821690637be53ca190602401602060405180830381865afa15801561172c573d6000803e3d6000fd5b505050506040513d601f19601f820116820180604052508101906117509190613ce8565b6040518060400160405280600181526020017f3100000000000000000000000000000000000000000000000000000000000000815250906117be576040517f08c379a00000000000000000000000000000000000000000000000000000000081526004016108eb91906137ab565b50603e5473ffffffffffffffffffffffffffffffffffffffff161561183f576040517f08c379a000000000000000000000000000000000000000000000000000000000815260206004820152601260248201527f41544f4b454e5f414c52454144595f534554000000000000000000000000000060448201526064016108eb565b73ffffffffffffffffffffffffffffffffffffffff82166118bc576040517f08c379a000000000000000000000000000000000000000000000000000000000815260206004820152601660248201527f5a45524f5f414444524553535f4e4f545f56414c49440000000000000000000060448201526064016108eb565b603e80547fffffffffffffffffffffffff00000000000000000000000000000000000000001673ffffffffffffffffffffffffffffffffffffffff84169081179091556040517f07cba78d3a9bb0cf2cb0e30140558e278b50a2ba6da2e13369a0d9113034548b90600090a25050565b73ffffffffffffffffffffffffffffffffffffffff81166000908152603860205260408120546fffffffffffffffffffffffffffffffff16806119725750600092915050565b6037546040517f386497fd00000000000000000000000000000000000000000000000000000000815273ffffffffffffffffffffffffffffffffffffffff91821660048201526000917f0000000000000000000000000000000000000000000000000000000000000000169063386497fd90602401602060405180830381865afa158015611a04573d6000803e3d6000fd5b505050506040513d601f19601f82011682018060405250810190611a289190613cb2565b73ffffffffffffffffffffffffffffffffffffffff85166000908152603860205260408120549192507001000000000000000000000000000000009091046fffffffffffffffffffffffffffffffff1690611a838484612880565b905081831415611a965795945050505050565b73ffffffffffffffffffffffffffffffffffffffff8616600090815260416020526040902054700100000000000000000000000000000000900461ffff168015611b0a576000611ae68685612880565b611af09084613c9b565b9050611afc8183612dfb565b611b069084613c9b565b9250505b5095945050505050565b6037546040517f386497fd00000000000000000000000000000000000000000000000000000000815273ffffffffffffffffffffffffffffffffffffffff91821660048201526000917f0000000000000000000000000000000000000000000000000000000000000000169063386497fd90602401602060405180830381865afa158015611ba6573d6000803e3d6000fd5b505050506040513d601f19601f82011682018060405250810190611bca9190613cb2565b90506000611c0c8373ffffffffffffffffffffffffffffffffffffffff166000908152603860205260409020546fffffffffffffffffffffffffffffffff1690565b73ffffffffffffffffffffffffffffffffffffffff841660009081526041602052604081205491925070010000000000000000000000000000000090910461ffff169080611c5c8685858861299c565b91509150611c6d8661133c836127da565b611d4e86611cb387610e3b8a73ffffffffffffffffffffffffffffffffffffffff166000908152603860205260409020546fffffffffffffffffffffffffffffffff1690565b603f546040517f70a0823100000000000000000000000000000000000000000000000000000000815273ffffffffffffffffffffffffffffffffffffffff8b81166004830152909116906370a08231906024015b602060405180830381865afa158015611d24573d6000803e3d6000fd5b505050506040513d601f19601f82011682018060405250810190611d489190613cb2565b86612ca6565b60405182815273ffffffffffffffffffffffffffffffffffffffff8716906000907fddf252ad1be2c89b69c2b068fc378daa952ba7f163c4a11628f55a4df523b3ef9060200160405180910390a3604080518381526020810184905290810186905273ffffffffffffffffffffffffffffffffffffffff8716906000907f458f5fa412d0f69b08dd84872b0215675cc67bc1d5b6fd93300a1c3878b861969060600160405180910390a3505050505050565b6060603c805461080190613c00565b6000610e41603a5490565b60408051808201909152600281527f323300000000000000000000000000000000000000000000000000000000000060208201526000908190337f000000000000000000000000000000000000000000000000000000000000000073ffffffffffffffffffffffffffffffffffffffff1614611ec3576040517f08c379a00000000000000000000000000000000000000000000000000000000081526004016108eb91906137ab565b508473ffffffffffffffffffffffffffffffffffffffff168673ffffffffffffffffffffffffffffffffffffffff1614611f0257611f02858786612e3e565b611f0e86868686612efe565b611f16611e0f565b9150915094509492505050565b611f2e338383612763565b5050565b6001805460ff1680611f435750303b155b80611f4f575060005481115b611fdb576040517f08c379a000000000000000000000000000000000000000000000000000000000815260206004820152602e60248201527f436f6e747261637420696e7374616e63652068617320616c726561647920626560448201527f656e20696e697469616c697a656400000000000000000000000000000000000060648201526084016108eb565b60015460ff1615801561201857600180547fffffffffffffffffffffffffffffffffffffffffffffffffffffffffffffff00168117905560008290555b7f000000000000000000000000000000000000000000000000000000000000000073ffffffffffffffffffffffffffffffffffffffff168a73ffffffffffffffffffffffffffffffffffffffff16146040518060400160405280600281526020017f3837000000000000000000000000000000000000000000000000000000000000815250906120d5576040517f08c379a00000000000000000000000000000000000000000000000000000000081526004016108eb91906137ab565b506120df866131a3565b6120e8856131b6565b603d80546037805473ffffffffffffffffffffffffffffffffffffffff8d81167fffffffffffffffffffffffff0000000000000000000000000000000000000000909216919091179091558a16610100027fffffffffffffffffffffff00000000000000000000000000000000000000000090911660ff8a161717905561216d6128d7565b6035819055507f000000000000000000000000000000000000000000000000000000000000000073ffffffffffffffffffffffffffffffffffffffff168973ffffffffffffffffffffffffffffffffffffffff167f40251fbfb6656cfa65a00d7879029fec1fad21d28fdcff2f4f68f52795b74f2c8a8a8a8a8a8a6040516121fa96959493929190613d0a565b60405180910390a3801561162157600180547fffffffffffffffffffffffffffffffffffffffffffffffffffffffffffffff0016905550505050505050505050565b60007f000000000000000000000000000000000000000000000000000000000000000073ffffffffffffffffffffffffffffffffffffffff1663707cd7166040518163ffffffff1660e01b8152600401602060405180830381865afa1580156122a9573d6000803e3d6000fd5b505050506040513d601f19601f820116820180604052508101906122cd9190613ccb565b6040517f7be53ca100000000000000000000000000000000000000000000000000000000815233600482015290915073ffffffffffffffffffffffffffffffffffffffff821690637be53ca190602401602060405180830381865afa15801561233a573d6000803e3d6000fd5b505050506040513d601f19601f8201168201806040525081019061235e9190613ce8565b6040518060400160405280600181526020017f3100000000000000000000000000000000000000000000000000000000000000815250906123cc576040517f08c379a00000000000000000000000000000000000000000000000000000000081526004016108eb91906137ab565b5073ffffffffffffffffffffffffffffffffffffffff821661244a576040517f08c379a000000000000000000000000000000000000000000000000000000000815260206004820152601660248201527f5a45524f5f414444524553535f4e4f545f56414c49440000000000000000000060448201526064016108eb565b6040805473ffffffffffffffffffffffffffffffffffffffff8481167fffffffffffffffffffffffff000000000000000000000000000000000000000083168117845592519116919082907f194bd59f47b230edccccc2be58b92dde3a5dadd835751a621af59006928bccef90600090a3505050565b60007f000000000000000000000000000000000000000000000000000000000000000073ffffffffffffffffffffffffffffffffffffffff1663707cd7166040518163ffffffff1660e01b8152600401602060405180830381865afa15801561252d573d6000803e3d6000fd5b505050506040513d601f19601f820116820180604052508101906125519190613ccb565b6040517f7be53ca100000000000000000000000000000000000000000000000000000000815233600482015290915073ffffffffffffffffffffffffffffffffffffffff821690637be53ca190602401602060405180830381865afa1580156125be573d6000803e3d6000fd5b505050506040513d601f19601f820116820180604052508101906125e29190613ce8565b6040518060400160405280600181526020017f310000000000000000000000000000000000000000000000000000000000000081525090612650576040517f08c379a00000000000000000000000000000000000000000000000000000000081526004016108eb91906137ab565b5050603d805473ffffffffffffffffffffffffffffffffffffffff909216610100027fffffffffffffffffffffff0000000000000000000000000000000000000000ff909216919091179055565b60408051808201909152600281527f32330000000000000000000000000000000000000000000000000000000000006020820152600090337f000000000000000000000000000000000000000000000000000000000000000073ffffffffffffffffffffffffffffffffffffffff1614612745576040517f08c379a00000000000000000000000000000000000000000000000000000000081526004016108eb91906137ab565b5061275384600085856131c9565b61275b611e0f565b949350505050565b73ffffffffffffffffffffffffffffffffffffffff83811660008181526036602090815260408083208786168085529083529281902086905560375490518681529416939192917fda919360433220e13b51e8c211e490d148e61a3bd53de8c097194e458b97f3e1910160405180910390a4505050565b60006fffffffffffffffffffffffffffffffff82111561287c576040517f08c379a000000000000000000000000000000000000000000000000000000000815260206004820152602760248201527f53616665436173743a2076616c756520646f65736e27742066697420696e203160448201527f323820626974730000000000000000000000000000000000000000000000000060648201526084016108eb565b5090565b600081157ffffffffffffffffffffffffffffffffffffffffffe6268e1b017bfe18bffffff839004841115176128b557600080fd5b506b033b2e3c9fd0803ce800000091026b019d971e4fe8401e74000000010490565b60007f8b73c3c69bb8fe3d512ecc4cf759cc79239f7b179b0ffacaa9a75d522b39400f61290261356f565b8051602091820120604080518082018252600181527f310000000000000000000000000000000000000000000000000000000000000090840152805192830193909352918101919091527fc89efdaa54c0f20c7adf612882df0950f5a951637e0307cdcb4c672f298b8bc660608201524660808201523060a082015260c00160405160208183030381529060405280519060200120905090565b73ffffffffffffffffffffffffffffffffffffffff8416600090815260386020526040812054819081906129f790879070010000000000000000000000000000000090046fffffffffffffffffffffffffffffffff16612880565b612a018786612880565b612a0b9190613c9b565b905060008115801590612a1d57508515155b15612a4a576000612a2e8388612dfb565b9050612a3a8187613579565b9150612a468184613c9b565b9250505b612a53856127da565b73ffffffffffffffffffffffffffffffffffffffff8916600090815260386020908152604080832080546fffffffffffffffffffffffffffffffff958616700100000000000000000000000000000000029086161790556041909152902054612ac191610d0d911684613c83565b73ffffffffffffffffffffffffffffffffffffffff98909816600090815260416020526040902080547fffffffffffffffffffffffffffffffff00000000000000000000000000000000166fffffffffffffffffffffffffffffffff999099169890981790975596945050505050565b603a54612b506fffffffffffffffffffffffffffffffff831682613c9b565b603a5573ffffffffffffffffffffffffffffffffffffffff83166000908152603860205260409020546fffffffffffffffffffffffffffffffff16612b958382613daa565b73ffffffffffffffffffffffffffffffffffffffff858116600090815260386020526040902080547fffffffffffffffffffffffffffffffff00000000000000000000000000000000166fffffffffffffffffffffffffffffffff9390931692909217909155603d546101009004168015611627576040517f31873e2e00000000000000000000000000000000000000000000000000000000815273ffffffffffffffffffffffffffffffffffffffff8681166004830152602482018590526fffffffffffffffffffffffffffffffff841660448301528216906331873e2e90606401600060405180830381600087803b158015612c9257600080fd5b505af1158015610c3a573d6000803e3d6000fd5b6040805490517f93adbec5000000000000000000000000000000000000000000000000000000008152600481018590526024810184905260009173ffffffffffffffffffffffffffffffffffffffff16906393adbec590604401602060405180830381865afa158015612d1d573d6000803e3d6000fd5b505050506040513d601f19601f82011682018060405250810190612d419190613cb2565b905080821461162757612d53816135b8565b73ffffffffffffffffffffffffffffffffffffffff8616600081815260416020908152604091829020805461ffff95909516700100000000000000000000000000000000027fffffffffffffffffffffffffffff0000ffffffffffffffffffffffffffffffff909516949094179093555184815283927f74ab9665e7c36c29ddb78ef88a3e2eac73d35b8b16de7bc573e313e320104956910160405180910390a35050505050565b600081157fffffffffffffffffffffffffffffffffffffffffffffffffffffffffffffec7783900484111517612e3057600080fd5b506127109102611388010490565b73ffffffffffffffffffffffffffffffffffffffff8084166000908152603660209081526040808320938616835292905290812054612e7e908390613c9b565b73ffffffffffffffffffffffffffffffffffffffff808616600081815260366020908152604080832089861680855292529182902085905560375491519495509216927fda919360433220e13b51e8c211e490d148e61a3bd53de8c097194e458b97f3e190612ef09086815260200190565b60405180910390a450505050565b600080612f0b8484613579565b60408051808201909152600281527f3234000000000000000000000000000000000000000000000000000000000000602082015290915081612f7a576040517f08c379a00000000000000000000000000000000000000000000000000000000081526004016108eb91906137ab565b5073ffffffffffffffffffffffffffffffffffffffff851660009081526038602090815260408083205460419092528220546fffffffffffffffffffffffffffffffff9091169170010000000000000000000000000000000090910461ffff169080612fe88985858a61299c565b915091508085111561300f5761300a89613005610d0d8489613c9b565b61364c565b613020565b6130208961133c610d0d8885613c9b565b6130be8961306689610e3b8d73ffffffffffffffffffffffffffffffffffffffff166000908152603860205260409020546fffffffffffffffffffffffffffffffff1690565b603f546040517f70a0823100000000000000000000000000000000000000000000000000000000815273ffffffffffffffffffffffffffffffffffffffff8e81166004830152909116906370a0823190602401611d07565b60006130ca838a613c83565b90508973ffffffffffffffffffffffffffffffffffffffff16600073ffffffffffffffffffffffffffffffffffffffff167fddf252ad1be2c89b69c2b068fc378daa952ba7f163c4a11628f55a4df523b3ef8360405161312c91815260200190565b60405180910390a3604080518281526020810185905290810189905273ffffffffffffffffffffffffffffffffffffffff808c1691908d16907f458f5fa412d0f69b08dd84872b0215675cc67bc1d5b6fd93300a1c3878b861969060600160405180910390a35060019a9950505050505050505050565b8051611f2e90603b9060208401906136b0565b8051611f2e90603c9060208401906136b0565b60006131d58383613579565b60408051808201909152600281527f3235000000000000000000000000000000000000000000000000000000000000602082015290915081613244576040517f08c379a00000000000000000000000000000000000000000000000000000000081526004016108eb91906137ab565b5060006132508661192c565b905060006132928773ffffffffffffffffffffffffffffffffffffffff166000908152603860205260409020546fffffffffffffffffffffffffffffffff1690565b73ffffffffffffffffffffffffffffffffffffffff881660009081526041602052604081205491925070010000000000000000000000000000000090910461ffff1690806132e28a85858a61299c565b9150915084881415613300576132fb8a61133c866127da565b613311565b6133118a61133c610d0d848a613c83565b6133af8a61335789610e3b8e73ffffffffffffffffffffffffffffffffffffffff166000908152603860205260409020546fffffffffffffffffffffffffffffffff1690565b603f546040517f70a0823100000000000000000000000000000000000000000000000000000000815273ffffffffffffffffffffffffffffffffffffffff8f81166004830152909116906370a0823190602401611d07565b8782111561348e5760006133c38984613c9b565b90508a73ffffffffffffffffffffffffffffffffffffffff16600073ffffffffffffffffffffffffffffffffffffffff167fddf252ad1be2c89b69c2b068fc378daa952ba7f163c4a11628f55a4df523b3ef8360405161342591815260200190565b60405180910390a3604080518281526020810185905290810189905273ffffffffffffffffffffffffffffffffffffffff8c169081907f458f5fa412d0f69b08dd84872b0215675cc67bc1d5b6fd93300a1c3878b861969060600160405180910390a350611621565b600061349a838a613c9b565b9050600073ffffffffffffffffffffffffffffffffffffffff168b73ffffffffffffffffffffffffffffffffffffffff167fddf252ad1be2c89b69c2b068fc378daa952ba7f163c4a11628f55a4df523b3ef836040516134fc91815260200190565b60405180910390a3604080518281526020810185905290810189905273ffffffffffffffffffffffffffffffffffffffff808c1691908d16907f4cf25bc1d991c17529c25213d3cc0cda295eeaad5f13f361969b12ea48015f909060600160405180910390a35050505050505050505050565b6060610e416107f2565b600081156b033b2e3c9fd0803ce80000006002840419048411171561359d57600080fd5b506b033b2e3c9fd0803ce80000009190910260028204010490565b600061ffff82111561287c576040517f08c379a000000000000000000000000000000000000000000000000000000000815260206004820152602660248201527f53616665436173743a2076616c756520646f65736e27742066697420696e203160448201527f362062697473000000000000000000000000000000000000000000000000000060648201526084016108eb565b603a5461366b6fffffffffffffffffffffffffffffffff831682613c83565b603a5573ffffffffffffffffffffffffffffffffffffffff83166000908152603860205260409020546fffffffffffffffffffffffffffffffff16612b958382613ddb565b8280546136bc90613c00565b90600052602060002090601f0160209004810192826136de5760008555613724565b82601f106136f757805160ff1916838001178555613724565b82800160010185558215613724579182015b82811115613724578251825591602001919060010190613709565b5061287c9291505b8082111561287c576000815560010161372c565b6000815180845260005b818110156137665760208185018101518683018201520161374a565b81811115613778576000602083870101525b50601f017fffffffffffffffffffffffffffffffffffffffffffffffffffffffffffffffe0169290920160200192915050565b6020815260006137be6020830184613740565b9392505050565b73ffffffffffffffffffffffffffffffffffffffff811681146137e757600080fd5b50565b80356137f5816137c5565b919050565b6000806040838503121561380d57600080fd5b8235613818816137c5565b946020939093013593505050565b60006020828403121561383857600080fd5b81356137be816137c5565b803560ff811681146137f557600080fd5b600080600080600080600060e0888a03121561386f57600080fd5b873561387a816137c5565b9650602088013561388a816137c5565b955060408801359450606088013593506138a660808901613843565b925060a0880135915060c0880135905092959891949750929550565b6000806000606084860312156138d757600080fd5b83356138e2816137c5565b925060208401356138f2816137c5565b929592945050506040919091013590565b600080600080600060a0868803121561391b57600080fd5b8535613926816137c5565b94506020860135613936816137c5565b94979496505050506040830135926060810135926080909101359150565b6000806040838503121561396757600080fd5b8235613972816137c5565b91506020830135613982816137c5565b809150509250929050565b600080600080608085870312156139a357600080fd5b84356139ae816137c5565b935060208501356139be816137c5565b93969395505050506040820135916060013590565b7f4e487b7100000000000000000000000000000000000000000000000000000000600052604160045260246000fd5b600082601f830112613a1357600080fd5b813567ffffffffffffffff80821115613a2e57613a2e6139d3565b604051601f83017fffffffffffffffffffffffffffffffffffffffffffffffffffffffffffffffe0908116603f01168101908282118183101715613a7457613a746139d3565b81604052838152866020858801011115613a8d57600080fd5b836020870160208301376000602085830101528094505050505092915050565b60008083601f840112613abf57600080fd5b50813567ffffffffffffffff811115613ad757600080fd5b602083019150836020828501011115613aef57600080fd5b9250929050565b60008060008060008060008060e0898b031215613b1257600080fd5b8835613b1d816137c5565b97506020890135613b2d816137c5565b9650613b3b60408a016137ea565b9550613b4960608a01613843565b9450608089013567ffffffffffffffff80821115613b6657600080fd5b613b728c838d01613a02565b955060a08b0135915080821115613b8857600080fd5b613b948c838d01613a02565b945060c08b0135915080821115613baa57600080fd5b50613bb78b828c01613aad565b999c989b5096995094979396929594505050565b600080600060608486031215613be057600080fd5b8335613beb816137c5565b95602085013595506040909401359392505050565b600181811c90821680613c1457607f821691505b60208210811415613c4e577f4e487b7100000000000000000000000000000000000000000000000000000000600052602260045260246000fd5b50919050565b7f4e487b7100000000000000000000000000000000000000000000000000000000600052601160045260246000fd5b60008219821115613c9657613c96613c54565b500190565b600082821015613cad57613cad613c54565b500390565b600060208284031215613cc457600080fd5b5051919050565b600060208284031215613cdd57600080fd5b81516137be816137c5565b600060208284031215613cfa57600080fd5b815180151581146137be57600080fd5b73ffffffffffffffffffffffffffffffffffffffff8716815260ff8616602082015260a060408201526000613d4260a0830187613740565b8281036060840152613d548187613740565b905082810360808401528381528385602083013760006020858301015260207fffffffffffffffffffffffffffffffffffffffffffffffffffffffffffffffe0601f860116820101915050979650505050505050565b60006fffffffffffffffffffffffffffffffff83811690831681811015613dd357613dd3613c54565b039392505050565b60006fffffffffffffffffffffffffffffffff808316818516808303821115613e0657613e06613c54565b0194935050505056fea2646970667358221220668b6b67f205010757e2c604dcb30e1e1c6f54c05fd7154be29b38fdfe8301a664736f6c634300080a0033",
  "devdoc": {
    "author": "Aave",
    "details": "Transfer and approve functionalities are disabled since its a non-transferable token",
    "kind": "dev",
    "methods": {
      "DOMAIN_SEPARATOR()": {
        "details": "Return cached value if chainId matches cache, otherwise recomputes separator",
        "returns": {
          "_0": "The domain separator of the token at current chain"
        }
      },
      "UNDERLYING_ASSET_ADDRESS()": {
        "returns": {
          "_0": "The address of the underlying asset"
        }
      },
      "approveDelegation(address,uint256)": {
        "params": {
          "amount": "The maximum amount being delegated.",
          "delegatee": "The address receiving the delegated borrowing power"
        }
      },
      "balanceOf(address)": {
        "details": "Returns the amount of tokens owned by `account`."
      },
      "borrowAllowance(address,address)": {
        "params": {
          "fromUser": "The user to giving allowance",
          "toUser": "The user to give allowance to"
        },
        "returns": {
          "_0": "The current allowance of `toUser`"
        }
      },
      "burn(address,uint256,uint256)": {
        "details": "In some instances, a burn transaction will emit a mint event if the amount to burn is less than the interest that the user accrued",
        "params": {
          "amount": "The amount getting burned",
          "from": "The address from which the debt will be burned",
          "index": "The variable debt index of the reserve"
        },
        "returns": {
          "_0": "The scaled total debt of the reserve"
        }
      },
      "constructor": {
        "details": "Constructor.",
        "params": {
          "pool": "The address of the Pool contract"
        }
      },
      "decreaseBalanceFromInterest(address,uint256)": {
        "details": "Decrease the amount of interests accumulated by the user",
        "params": {
          "amount": "The value to be decrease",
          "user": "The address of the user"
        }
      },
      "delegationWithSig(address,address,uint256,uint256,uint8,bytes32,bytes32)": {
        "params": {
          "deadline": "The deadline timestamp, type(uint256).max for max deadline",
          "delegatee": "The delegatee that can use the credit",
          "delegator": "The delegator of the credit",
          "r": "The R signature param",
          "s": "The S signature param",
          "v": "The V signature param",
          "value": "The amount to be delegated"
        }
      },
      "getAToken()": {
        "returns": {
          "_0": "The address of the GhoAToken contract"
        }
      },
      "getDiscountPercent(address)": {
        "params": {
          "user": "The address of the user"
        },
        "returns": {
          "_0": "The discount percent (expressed in bps)"
        }
      },
      "getDiscountRateStrategy()": {
        "returns": {
          "_0": "The address of DiscountRateStrategy contract"
        }
      },
      "getDiscountToken()": {
        "returns": {
          "_0": "address The address of DiscountToken"
        }
      },
      "getIncentivesController()": {
        "returns": {
          "_0": "The address of the Incentives Controller"
        }
      },
      "getPreviousIndex(address)": {
        "params": {
          "user": "The address of the user"
        },
        "returns": {
          "_0": "The last index interest was accrued to the user's balance, expressed in ray"
        }
      },
      "getScaledUserBalanceAndSupply(address)": {
        "params": {
          "user": "The address of the user"
        },
        "returns": {
          "_0": "The scaled balance of the user",
          "_1": "The scaled total supply"
        }
      },
      "initialize(address,address,address,uint8,string,string,bytes)": {
        "params": {
          "debtTokenDecimals": "The decimals of the debtToken, same as the underlying asset's",
          "debtTokenName": "The name of the token",
          "debtTokenSymbol": "The symbol of the token",
          "incentivesController": "The smart contract managing potential incentives distribution",
          "params": "A set of encoded parameters for additional initialization",
          "pool": "The pool contract that is initializing this contract",
          "underlyingAsset": "The address of the underlying asset of this aToken (E.g. WETH for aWETH)"
        }
      },
      "mint(address,address,uint256,uint256)": {
        "params": {
          "amount": "The amount of debt being minted",
          "index": "The variable debt index of the reserve",
          "onBehalfOf": "The address receiving the debt tokens",
          "user": "The address receiving the borrowed underlying, being the delegatee in case of credit delegate, or same as `onBehalfOf` otherwise"
        },
        "returns": {
          "_0": "True if the previous balance of the user is 0, false otherwise",
          "_1": "The scaled total debt of the reserve"
        }
      },
      "nonces(address)": {
        "params": {
          "owner": "The address for which the nonce is being returned"
        },
        "returns": {
          "_0": "The nonce value for the input address`"
        }
      },
      "rebalanceUserDiscountPercent(address)": {
        "params": {
          "user": "The address of the user"
        }
      },
      "scaledBalanceOf(address)": {
        "details": "The scaled balance is the sum of all the updated stored balance divided by the reserve's liquidity index at the moment of the update",
        "params": {
          "user": "The user whose balance is calculated"
        },
        "returns": {
          "_0": "The scaled balance of the user"
        }
      },
      "scaledTotalSupply()": {
        "returns": {
          "_0": "The scaled total supply"
        }
      },
      "setAToken(address)": {
        "params": {
          "ghoAToken": "The address of the GhoAToken contract"
        }
      },
      "setIncentivesController(address)": {
        "params": {
          "controller": "the new Incentives controller"
        }
      },
      "totalSupply()": {
        "details": "It does not account for active discounts of the users. The discount is deducted from the user's debt at repayment / liquidation time, so this function does always return a greater or equal value than the actual total supply.",
        "returns": {
          "_0": "The amount of tokens in existence (without accounting for active discounts on debt)"
        }
      },
      "transfer(address,uint256)": {
        "details": "Being non transferrable, the debt token does not implement any of the standard ERC20 functions for transfer and allowance."
      },
      "updateDiscountDistribution(address,address,uint256,uint256,uint256)": {
        "details": "To be executed before the token transfer happens",
        "params": {
          "amount": "The amount of discount token being transferred",
          "recipient": "The address of recipient",
          "recipientDiscountTokenBalance": "The recipient discount token balance",
          "sender": "The address of sender",
          "senderDiscountTokenBalance": "The sender discount token balance"
        }
      },
      "updateDiscountRateStrategy(address)": {
        "params": {
          "newDiscountRateStrategy": "The address of DiscountRateStrategy contract"
        }
      },
      "updateDiscountToken(address)": {
        "params": {
          "newDiscountToken": "The address of the DiscountToken contract"
        }
      }
    },
    "title": "GhoVariableDebtToken",
    "version": 1
  },
  "userdoc": {
    "kind": "user",
    "methods": {
      "DOMAIN_SEPARATOR()": {
        "notice": "Get the domain separator for the token"
      },
      "UNDERLYING_ASSET_ADDRESS()": {
        "notice": "Returns the address of the underlying asset of this debtToken (E.g. WETH for variableDebtWETH)"
      },
      "approveDelegation(address,uint256)": {
        "notice": "Delegates borrowing power to a user on the specific debt token. Delegation will still respect the liquidation constraints (even if delegated, a delegatee cannot force a delegator HF to go below 1)"
      },
      "borrowAllowance(address,address)": {
        "notice": "Returns the borrow allowance of the user"
      },
      "burn(address,uint256,uint256)": {
        "notice": "Burns user variable debt"
      },
      "delegationWithSig(address,address,uint256,uint256,uint8,bytes32,bytes32)": {
        "notice": "Delegates borrowing power to a user on the specific debt token via ERC712 signature"
      },
      "getAToken()": {
        "notice": "Returns the address of the GHO AToken"
      },
      "getDiscountPercent(address)": {
        "notice": "Returns the discount percent being applied to the debt interest of the user"
      },
      "getDiscountRateStrategy()": {
        "notice": "Returns the address of the Discount Rate Strategy"
      },
      "getDiscountToken()": {
        "notice": "Returns the address of the Discount Token"
      },
      "getIncentivesController()": {
        "notice": "Returns the address of the Incentives Controller contract"
      },
      "getPreviousIndex(address)": {
        "notice": "Returns last index interest was accrued to the user's balance"
      },
      "getScaledUserBalanceAndSupply(address)": {
        "notice": "Returns the scaled balance of the user and the scaled total supply."
      },
      "initialize(address,address,address,uint8,string,string,bytes)": {
        "notice": "Initializes the debt token."
      },
      "mint(address,address,uint256,uint256)": {
        "notice": "Mints debt token to the `onBehalfOf` address"
      },
      "nonces(address)": {
        "notice": "Returns the nonce value for address specified as parameter"
      },
      "rebalanceUserDiscountPercent(address)": {
        "notice": "Rebalances the discount percent of a user"
      },
      "scaledBalanceOf(address)": {
        "notice": "Returns the scaled balance of the user."
      },
      "scaledTotalSupply()": {
        "notice": "Returns the scaled total supply of the scaled balance token. Represents sum(debt/index)"
      },
      "setAToken(address)": {
        "notice": "Sets a reference to the GHO AToken"
      },
      "setIncentivesController(address)": {
        "notice": "Sets a new Incentives Controller"
      },
      "totalSupply()": {
        "notice": "Returns the amount of tokens in existence."
      },
      "updateDiscountDistribution(address,address,uint256,uint256,uint256)": {
        "notice": "Updates the discount percents of the users when a discount token transfer occurs"
      },
      "updateDiscountRateStrategy(address)": {
        "notice": "Updates the Discount Rate Strategy"
      },
      "updateDiscountToken(address)": {
        "notice": "Updates the Discount Token"
      }
    },
    "notice": "Implements a variable debt token to track the borrowing positions of users at variable rate mode for GHO",
    "version": 1
  },
  "storageLayout": {
    "storage": [
      {
        "astId": 4441,
        "contract": "src/contracts/facilitators/aave/tokens/GhoVariableDebtToken.sol:GhoVariableDebtToken",
        "label": "lastInitializedRevision",
        "offset": 0,
        "slot": "0",
        "type": "t_uint256"
      },
      {
        "astId": 4444,
        "contract": "src/contracts/facilitators/aave/tokens/GhoVariableDebtToken.sol:GhoVariableDebtToken",
        "label": "initializing",
        "offset": 0,
        "slot": "1",
        "type": "t_bool"
      },
      {
        "astId": 4514,
        "contract": "src/contracts/facilitators/aave/tokens/GhoVariableDebtToken.sol:GhoVariableDebtToken",
        "label": "______gap",
        "offset": 0,
        "slot": "2",
        "type": "t_array(t_uint256)50_storage"
      },
      {
        "astId": 17815,
        "contract": "src/contracts/facilitators/aave/tokens/GhoVariableDebtToken.sol:GhoVariableDebtToken",
        "label": "_nonces",
        "offset": 0,
        "slot": "52",
        "type": "t_mapping(t_address,t_uint256)"
      },
      {
        "astId": 17817,
        "contract": "src/contracts/facilitators/aave/tokens/GhoVariableDebtToken.sol:GhoVariableDebtToken",
        "label": "_domainSeparator",
        "offset": 0,
        "slot": "53",
        "type": "t_bytes32"
      },
      {
        "astId": 17592,
        "contract": "src/contracts/facilitators/aave/tokens/GhoVariableDebtToken.sol:GhoVariableDebtToken",
        "label": "_borrowAllowances",
        "offset": 0,
        "slot": "54",
        "type": "t_mapping(t_address,t_mapping(t_address,t_uint256))"
      },
      {
        "astId": 17599,
        "contract": "src/contracts/facilitators/aave/tokens/GhoVariableDebtToken.sol:GhoVariableDebtToken",
        "label": "_underlyingAsset",
        "offset": 0,
        "slot": "55",
        "type": "t_address"
      },
      {
        "astId": 17981,
        "contract": "src/contracts/facilitators/aave/tokens/GhoVariableDebtToken.sol:GhoVariableDebtToken",
        "label": "_userState",
        "offset": 0,
        "slot": "56",
        "type": "t_mapping(t_address,t_struct(UserState)17976_storage)"
      },
      {
        "astId": 17987,
        "contract": "src/contracts/facilitators/aave/tokens/GhoVariableDebtToken.sol:GhoVariableDebtToken",
        "label": "_allowances",
        "offset": 0,
        "slot": "57",
        "type": "t_mapping(t_address,t_mapping(t_address,t_uint256))"
      },
      {
        "astId": 17989,
        "contract": "src/contracts/facilitators/aave/tokens/GhoVariableDebtToken.sol:GhoVariableDebtToken",
        "label": "_totalSupply",
        "offset": 0,
        "slot": "58",
        "type": "t_uint256"
      },
      {
        "astId": 17991,
        "contract": "src/contracts/facilitators/aave/tokens/GhoVariableDebtToken.sol:GhoVariableDebtToken",
        "label": "_name",
        "offset": 0,
        "slot": "59",
        "type": "t_string_storage"
      },
      {
        "astId": 17993,
        "contract": "src/contracts/facilitators/aave/tokens/GhoVariableDebtToken.sol:GhoVariableDebtToken",
        "label": "_symbol",
        "offset": 0,
        "slot": "60",
        "type": "t_string_storage"
      },
      {
        "astId": 17995,
        "contract": "src/contracts/facilitators/aave/tokens/GhoVariableDebtToken.sol:GhoVariableDebtToken",
        "label": "_decimals",
        "offset": 0,
        "slot": "61",
        "type": "t_uint8"
      },
      {
        "astId": 17998,
        "contract": "src/contracts/facilitators/aave/tokens/GhoVariableDebtToken.sol:GhoVariableDebtToken",
        "label": "_incentivesController",
        "offset": 1,
        "slot": "61",
        "type": "t_contract(IAaveIncentivesController)2499"
      },
      {
        "astId": 73235,
        "contract": "src/contracts/facilitators/aave/tokens/GhoVariableDebtToken.sol:GhoVariableDebtToken",
        "label": "_ghoAToken",
        "offset": 0,
        "slot": "62",
        "type": "t_address"
      },
      {
        "astId": 73238,
        "contract": "src/contracts/facilitators/aave/tokens/GhoVariableDebtToken.sol:GhoVariableDebtToken",
        "label": "_discountToken",
        "offset": 0,
        "slot": "63",
        "type": "t_contract(IERC20)745"
      },
      {
        "astId": 73241,
        "contract": "src/contracts/facilitators/aave/tokens/GhoVariableDebtToken.sol:GhoVariableDebtToken",
        "label": "_discountRateStrategy",
        "offset": 0,
        "slot": "64",
        "type": "t_contract(IGhoDiscountRateStrategy)71894"
      },
      {
        "astId": 73251,
        "contract": "src/contracts/facilitators/aave/tokens/GhoVariableDebtToken.sol:GhoVariableDebtToken",
        "label": "_ghoUserState",
        "offset": 0,
        "slot": "65",
        "type": "t_mapping(t_address,t_struct(GhoUserState)73246_storage)"
      }
    ],
    "types": {
      "t_address": {
        "encoding": "inplace",
        "label": "address",
        "numberOfBytes": "20"
      },
      "t_array(t_uint256)50_storage": {
        "base": "t_uint256",
        "encoding": "inplace",
        "label": "uint256[50]",
        "numberOfBytes": "1600"
      },
      "t_bool": {
        "encoding": "inplace",
        "label": "bool",
        "numberOfBytes": "1"
      },
      "t_bytes32": {
        "encoding": "inplace",
        "label": "bytes32",
        "numberOfBytes": "32"
      },
      "t_contract(IAaveIncentivesController)2499": {
        "encoding": "inplace",
        "label": "contract IAaveIncentivesController",
        "numberOfBytes": "20"
      },
      "t_contract(IERC20)745": {
        "encoding": "inplace",
        "label": "contract IERC20",
        "numberOfBytes": "20"
      },
      "t_contract(IGhoDiscountRateStrategy)71894": {
        "encoding": "inplace",
        "label": "contract IGhoDiscountRateStrategy",
        "numberOfBytes": "20"
      },
      "t_mapping(t_address,t_mapping(t_address,t_uint256))": {
        "encoding": "mapping",
        "key": "t_address",
        "label": "mapping(address => mapping(address => uint256))",
        "numberOfBytes": "32",
        "value": "t_mapping(t_address,t_uint256)"
      },
      "t_mapping(t_address,t_struct(GhoUserState)73246_storage)": {
        "encoding": "mapping",
        "key": "t_address",
        "label": "mapping(address => struct GhoVariableDebtToken.GhoUserState)",
        "numberOfBytes": "32",
        "value": "t_struct(GhoUserState)73246_storage"
      },
      "t_mapping(t_address,t_struct(UserState)17976_storage)": {
        "encoding": "mapping",
        "key": "t_address",
        "label": "mapping(address => struct IncentivizedERC20.UserState)",
        "numberOfBytes": "32",
        "value": "t_struct(UserState)17976_storage"
      },
      "t_mapping(t_address,t_uint256)": {
        "encoding": "mapping",
        "key": "t_address",
        "label": "mapping(address => uint256)",
        "numberOfBytes": "32",
        "value": "t_uint256"
      },
      "t_string_storage": {
        "encoding": "bytes",
        "label": "string",
        "numberOfBytes": "32"
      },
      "t_struct(GhoUserState)73246_storage": {
        "encoding": "inplace",
        "label": "struct GhoVariableDebtToken.GhoUserState",
        "members": [
          {
            "astId": 73243,
            "contract": "src/contracts/facilitators/aave/tokens/GhoVariableDebtToken.sol:GhoVariableDebtToken",
            "label": "accumulatedDebtInterest",
            "offset": 0,
            "slot": "0",
            "type": "t_uint128"
          },
          {
            "astId": 73245,
            "contract": "src/contracts/facilitators/aave/tokens/GhoVariableDebtToken.sol:GhoVariableDebtToken",
            "label": "discountPercent",
            "offset": 16,
            "slot": "0",
            "type": "t_uint16"
          }
        ],
        "numberOfBytes": "32"
      },
      "t_struct(UserState)17976_storage": {
        "encoding": "inplace",
        "label": "struct IncentivizedERC20.UserState",
        "members": [
          {
            "astId": 17973,
            "contract": "src/contracts/facilitators/aave/tokens/GhoVariableDebtToken.sol:GhoVariableDebtToken",
            "label": "balance",
            "offset": 0,
            "slot": "0",
            "type": "t_uint128"
          },
          {
            "astId": 17975,
            "contract": "src/contracts/facilitators/aave/tokens/GhoVariableDebtToken.sol:GhoVariableDebtToken",
            "label": "additionalData",
            "offset": 16,
            "slot": "0",
            "type": "t_uint128"
          }
        ],
        "numberOfBytes": "32"
      },
      "t_uint128": {
        "encoding": "inplace",
        "label": "uint128",
        "numberOfBytes": "16"
      },
      "t_uint16": {
        "encoding": "inplace",
        "label": "uint16",
        "numberOfBytes": "2"
      },
      "t_uint256": {
        "encoding": "inplace",
        "label": "uint256",
        "numberOfBytes": "32"
      },
      "t_uint8": {
        "encoding": "inplace",
        "label": "uint8",
        "numberOfBytes": "1"
      }
    }
  }
}