{
  "address": "0x33A7C640140FEBafEcC9801AF723A0C14420eEd7",
  "abi": [
    {
      "inputs": [],
      "name": "DISCOUNT_RATE",
      "outputs": [
        {
          "internalType": "uint256",
          "name": "",
          "type": "uint256"
        }
      ],
      "stateMutability": "view",
      "type": "function"
    },
    {
      "inputs": [],
      "name": "GHO_DISCOUNTED_PER_DISCOUNT_TOKEN",
      "outputs": [
        {
          "internalType": "uint256",
          "name": "",
          "type": "uint256"
        }
      ],
      "stateMutability": "view",
      "type": "function"
    },
    {
      "inputs": [],
      "name": "MIN_DEBT_TOKEN_BALANCE",
      "outputs": [
        {
          "internalType": "uint256",
          "name": "",
          "type": "uint256"
        }
      ],
      "stateMutability": "view",
      "type": "function"
    },
    {
      "inputs": [],
      "name": "MIN_DISCOUNT_TOKEN_BALANCE",
      "outputs": [
        {
          "internalType": "uint256",
          "name": "",
          "type": "uint256"
        }
      ],
      "stateMutability": "view",
      "type": "function"
    },
    {
      "inputs": [
        {
          "internalType": "uint256",
          "name": "debtBalance",
          "type": "uint256"
        },
        {
          "internalType": "uint256",
          "name": "discountTokenBalance",
          "type": "uint256"
        }
      ],
      "name": "calculateDiscountRate",
      "outputs": [
        {
          "internalType": "uint256",
          "name": "",
          "type": "uint256"
        }
      ],
      "stateMutability": "view",
      "type": "function"
    }
  ],
  "transactionHash": "0xb1669e2087e2e2a93ba4c2afca73fdd6ab9e4fd67bda299327f9459551d60a0a",
  "args": [],
  "numDeployments": 1,
  "solcInputHash": "2e488d05c20cc61b064a5f3f9e5b4b77",
  "bytecode": "0x608060405234801561001057600080fd5b5060e78061001f6000396000f3fe6080604052348015600f57600080fd5b5060043610605f5760003560e01c806393adbec511604a57806393adbec514607d57806398c4f438146064578063b510c58914606457600080fd5b80633454274e146064578063771a73af146064575b600080fd5b606b600081565b60405190815260200160405180910390f35b606b60883660046090565b600092915050565b6000806040838503121560a257600080fd5b5050803592602090910135915056fea2646970667358221220b5208d54e999916b194ed854cbd512e2776a997da2b42fda7b92728fdbca532f64736f6c634300080a0033",
  "devdoc": {
    "author": "Aave",
    "kind": "dev",
    "methods": {
      "calculateDiscountRate(uint256,uint256)": {
        "params": {
          "debtBalance": "The debt balance of the user",
          "discountTokenBalance": "The discount token balance of the user"
        },
        "returns": {
          "_0": "The discount rate, as a percentage - the maximum can be 10000 = 100.00%"
        }
      }
    },
    "title": "ZeroDiscountRateStrategy",
    "version": 1
  },
  "userdoc": {
    "kind": "user",
    "methods": {
      "calculateDiscountRate(uint256,uint256)": {
        "notice": "Calculates the discount rate depending on the debt and discount token balances"
      }
    },
    "notice": "Discount Rate Strategy that always return zero discount rate.",
    "version": 1
  },
  "storageLayout": {
    "storage": [],
    "types": null
  }
}