{
  "address": "0xf8D9C75f060E776b67def028885528430F923602",
  "abi": [
    {
      "inputs": [],
      "name": "DISCOUNT_RATE",
      "outputs": [
        {
          "internalType": "uint256",
          "name": "",
          "type": "uint256"
        }
      ],
      "stateMutability": "view",
      "type": "function"
    },
    {
      "inputs": [],
      "name": "GHO_DISCOUNTED_PER_DISCOUNT_TOKEN",
      "outputs": [
        {
          "internalType": "uint256",
          "name": "",
          "type": "uint256"
        }
      ],
      "stateMutability": "view",
      "type": "function"
    },
    {
      "inputs": [],
      "name": "MIN_DEBT_TOKEN_BALANCE",
      "outputs": [
        {
          "internalType": "uint256",
          "name": "",
          "type": "uint256"
        }
      ],
      "stateMutability": "view",
      "type": "function"
    },
    {
      "inputs": [],
      "name": "MIN_DISCOUNT_TOKEN_BALANCE",
      "outputs": [
        {
          "internalType": "uint256",
          "name": "",
          "type": "uint256"
        }
      ],
      "stateMutability": "view",
      "type": "function"
    },
    {
      "inputs": [
        {
          "internalType": "uint256",
          "name": "debtBalance",
          "type": "uint256"
        },
        {
          "internalType": "uint256",
          "name": "discountTokenBalance",
          "type": "uint256"
        }
      ],
      "name": "calculateDiscountRate",
      "outputs": [
        {
          "internalType": "uint256",
          "name": "",
          "type": "uint256"
        }
      ],
      "stateMutability": "view",
      "type": "function"
    }
  ],
  "transactionHash": "0x085a57202f28d9a2d57f331dfc1642801235f11112679f07f3bf081c63ed8c42",
  "args": [],
  "numDeployments": 1,
  "solcInputHash": "22fd5720127d14bdc9537a92d31dc9dc",
  "bytecode": "0x608060405234801561001057600080fd5b5060e78061001f6000396000f3fe6080604052348015600f57600080fd5b5060043610605f5760003560e01c806393adbec511604a57806393adbec514607d57806398c4f438146064578063b510c58914606457600080fd5b80633454274e146064578063771a73af146064575b600080fd5b606b600081565b60405190815260200160405180910390f35b606b60883660046090565b600092915050565b6000806040838503121560a257600080fd5b5050803592602090910135915056fea26469706673582212207d3036df1fa79c555706fbd2b7d4d1ad49153c052c72177cbd0da5eadbc8b6d564736f6c634300080a0033",
  "devdoc": {
    "author": "Aave",
    "kind": "dev",
    "methods": {
      "calculateDiscountRate(uint256,uint256)": {
        "params": {
          "debtBalance": "The debt balance of the user",
          "discountTokenBalance": "The discount token balance of the user"
        },
        "returns": {
          "_0": "The discount rate, as a percentage - the maximum can be 10000 = 100.00%"
        }
      }
    },
    "title": "ZeroDiscountRateStrategy",
    "version": 1
  },
  "userdoc": {
    "kind": "user",
    "methods": {
      "calculateDiscountRate(uint256,uint256)": {
        "notice": "Calculates the discount rate depending on the debt and discount token balances"
      }
    },
    "notice": "Discount Rate Strategy that always return zero discount rate.",
    "version": 1
  },
  "storageLayout": {
    "storage": [],
    "types": null
  }
}